:1000000023EF00F00000000000EF00F0000000000F
:0A0010000000000000000000F3D71C
:10001C00EA50E25C02E1E950E15C02E2E66AF8D700
:02002C001200C0
:08002E0017501524006E1200AA
:100036000900F5CFE6FF0006FBE10106F9E1120033
:100046003CEC00F0030E156E166A020E176EECDF1E
:100056000050050A02E1162A01D0160604D015063C
:1000660006D0152A04D01550030AF9E0FAD7EFD7BF
:02007600FFD7B2
:0E00780010EE15F000EE18F00EEC00F0120085
:020000040001F9
:10FFF000A0F7ABFC22F0FFF7FBFEFFFC1DF0F8F2D0
:00000001FF
