:10000000FAEF00F00000000000EF00F00000000038
:0A0010000000000000000000F3D71C
:10001C008C908C8E090E0B6E1E0E0C6EE40E0D6EFB
:10002C000D2EFED70C2EFCD70B2EFAD700008C9E73
:10003C008C8C090E0B6E1E0E0C6EE40E0D6E0D2EBE
:10004C00FED70C2EFCD70B2EFAD700008C9C8C8A7A
:10005C00090E0B6E1E0E0C6EE40E0D6E0D2EFED7E1
:10006C000C2EFCD70B2EFAD700008C9A8C88090E1C
:10007C000B6E1E0E0C6EE40E0D6E0D2EFED70C2E9E
:10008C00FCD70B2EFAD700008C988C86090E0B6EC1
:10009C001E0E0C6EE40E0D6E0D2EFED70C2EFCD724
:1000AC000B2EFAD700008C968C84090E0B6E1E0E4C
:1000BC000C6EE40E0D6E0D2EFED70C2EFCD70B2EF7
:1000CC00FAD700008C948C82090E0B6E1E0E0C6EEF
:1000DC00E40E0D6E0D2EFED70C2EFCD70B2EFAD780
:1000EC0000008C928C80090E0B6E1E0E0C6EE40EB2
:1000FC000D6E0D2EFED70C2EFCD70B2EFAD7000052
:02010C001200DF
:10010E008C908C82090E0B6E1E0E0C6EE40E0D6E14
:10011E000D2EFED70C2EFCD70B2EFAD700008C928C
:10012E008C84090E0B6E1E0E0C6EE40E0D6E0D2ED3
:10013E00FED70C2EFCD70B2EFAD700008C948C8693
:10014E00090E0B6E1E0E0C6EE40E0D6E0D2EFED7EE
:10015E000C2EFCD70B2EFAD700008C968C88090E2D
:10016E000B6E1E0E0C6EE40E0D6E0D2EFED70C2EAB
:10017E00FCD70B2EFAD700008C988C9A090E0B6EBA
:10018E001E0E0C6EE40E0D6E0D2EFED70C2EFCD731
:10019E000B2EFAD700008C9A8C8C090E0B6E1E0E4D
:1001AE000C6EE40E0D6E0D2EFED70C2EFCD70B2E04
:1001BE00FAD700008C9C8C8E090E0B6E1E0E0C6EE8
:1001CE00E40E0D6E0D2EFED70C2EFCD70B2EFAD78D
:0401DE00000012000B
:1001E200EA50E25C02E1E950E15C02E2E66AF8D739
:0201F2001200F9
:1001F40002EC01F0956A8C6A0FDF87DFFDD7FFD729
:020204001200E6
:020000040001F9
:10FFF000A0F7ABFC22F0FFF7FBFEFFFC1DF0F8F2D0
:00000001FF
