:1000000004EF08F00000000000EF00F00000000026
:0A0010000000000000000000F3D71C
:10001C000E01FEB302D00000FBD74EC0F9FE120059
:10002C000F012EB302D00000FBD74EC029FF1200E7
:10003C000F0132B302D00000FBD74EC01DFF1200DF
:0E004C00ACB202D00000FCD74EC0ADFF1200D7
:0C005A00550E7E6EAA0E7E6E668C1200A3
:0C006600550E7E6EAA0E7E6E669C120087
:080072004DC04EF0E2DF120068
:08007A004DC04EF0E6DF12005C
:080082004DC04EF0E2DF120058
:08008A004DC04EF0D6DF12005C
:080092004DC04EF0C2DF120068
:08009A004DC04EF0BEDF120064
:0800A2004DC04EF0C2DF120058
:0800AA004DC04EF0BEDF120054
:1000B200F250026EF29E0500FF6A0150FE6E005081
:0800C200FD6E02BEF28E120079
:1000CA0048502E0803E2006A18EF07F04950000A68
:1000DA00D8A436D24B5201E0C1DF73D14AC012FE16
:1000EA002CD24AC000F0003600900036009000364C
:1000FA0000900036009000C012FE1FD24AC013FEC4
:10010A001CD24AC000F0003600900036009000363B
:10011A0000900036009000C013FE0FD24AC014FEB1
:10012A000CD24AC000F0003600900036009000362B
:10013A0000900036009000C014FEFFD14AC015FEA0
:10014A00FCD14AC000F0003600900036009000361C
:10015A0000900036009000C015FEEFD14AC016FE8E
:10016A00ECD14AC000F0003600900036009000360C
:10017A0000900036009000C016FEDFD14AC017FE7C
:10018A00DCD14AC000F000360090003600900036FC
:10019A0000900036009000C017FECFD14AC018FE6A
:1001AA00CCD14AC000F000360090003600900036EC
:1001BA0000900036009000C018FEBFD14AC019FE58
:1001CA00BCD14AC000F000360090003600900036DC
:1001DA0000900036009000C019FEAFD14AC01AFE46
:1001EA00ACD14AC000F000360090003600900036CC
:1001FA0000900036009000C01AFE9FD14AC01BFE34
:10020A009CD14AC000F000360090003600900036BB
:10021A0000900036009000C01BFE8FD14AC01CFE21
:10022A008CD14AC000F000360090003600900036AB
:10023A0000900036009000C01CFE7FD14AC01DFE0F
:10024A007CD14AC000F0003600900036009000369B
:10025A0000900036009000C01DFE6FD14AC01EFEFD
:10026A006CD14AC000F0003600900036009000368B
:10027A0000900036009000C01EFE5FD14AC01FFEEB
:10028A005CD14AC000F0003600900036009000367B
:10029A0000900036009000C01FFE4FD14AC020FED9
:1002AA004CD14AC000F0003600900036009000366B
:1002BA0000900036009000C020FE3FD14AC021FEC7
:1002CA003CD14AC000F0003600900036009000365B
:1002DA0000900036009000C021FE2FD14AC022FEB5
:1002EA002CD14AC000F0003600900036009000364B
:1002FA0000900036009000C022FE1FD14AC023FEA3
:10030A001CD14AC000F0003600900036009000363A
:10031A0000900036009000C023FE0FD14AC024FE90
:10032A000CD14AC000F0003600900036009000362A
:10033A0000900036009000C024FEFFD04AC025FE7F
:10034A00FCD04AC000F0003600900036009000361B
:10035A0000900036009000C025FEEFD04AC026FE6D
:10036A00ECD04AC000F0003600900036009000360B
:10037A0000900036009000C026FEDFD04AC027FE5B
:10038A00DCD04AC000F000360090003600900036FB
:10039A0000900036009000C027FECFD04AC028FE49
:1003AA00CCD04AC000F000360090003600900036EB
:1003BA0000900036009000C028FEBFD04AC029FE37
:1003CA00BCD04850000AD8B489D64850010AD8B4DB
:1003DA0088D64850020AD8B491D64850030AD8B4ED
:1003EA0090D64850040AD8B499D64850050AD8B4C9
:1003FA0098D64850060AD8B4A1D64850070AD8B4A5
:10040A00A0D64850080AD8B4A9D64850090AD8B480
:10041A00A8D648500A0AD8B4B1D648500B0AD8B45C
:10042A00B0D648500C0AD8B4B9D648500D0AD8B438
:10043A00B8D648500E0AD8B4C1D648500F0AD8B414
:10044A00C0D64850100AD8B4C9D64850110AD8B4F0
:10045A00C8D64850120AD8B4D1D64850130AD8B4CC
:10046A00D0D64850140AD8B4D9D64850150AD8B4A8
:10047A00D8D64850160AD8B4E1D64850170AD8B484
:10048A00E0D64850180AD8B4E9D64850190AD8B460
:10049A00E8D648501A0AD8B4F1D648501B0AD8B43C
:1004AA00F0D648501C0AD8B4F9D648501D0AD8B418
:1004BA00F8D648501E0AD8B401D748501F0AD8B4F3
:1004CA0000D74850200AD8B409D74850210AD8B4CE
:1004DA0008D74850220AD8B411D74850230AD8B4AA
:1004EA0010D74850240AD8B419D74850250AD8B486
:1004FA0018D74850260AD8B421D74850270AD8B462
:10050A0020D74850280AD8B429D74850290AD8B43D
:10051A0028D748502A0AD8B431D748502B0AD8B419
:10052A0030D748502C0AD8B439D748502D0AD8B4F5
:10053A0038D748502E0AD8B441D74B5201E088DD4B
:10054A004950010AD8A496D24B5201E087DD48C02F
:10055A004CF04C324C9E4C324C9EB0D14CC02AFED0
:10056A0085D24CC000F0003600900036009000366C
:10057A0000900036009000C02AFE78D24CC02BFEB4
:10058A0075D24CC000F0003600900036009000365C
:10059A0000900036009000C02BFE68D24CC02CFEA2
:1005AA0065D24CC000F0003600900036009000364C
:1005BA0000900036009000C02CFE58D24CC02DFE90
:1005CA0055D24CC000F0003600900036009000363C
:1005DA0000900036009000C02DFE48D24CC02EFE7E
:1005EA0045D24CC000F0003600900036009000362C
:1005FA0000900036009000C02EFE38D24CC02FFE6C
:10060A0035D24CC000F0003600900036009000361B
:10061A0000900036009000C02FFE28D24CC030FE59
:10062A0025D24CC000F0003600900036009000360B
:10063A0000900036009000C030FE18D24CC031FE47
:10064A0015D24CC000F000360090003600900036FB
:10065A0000900036009000C031FE08D24CC032FE35
:10066A0005D24CC000F000360090003600900036EB
:10067A0000900036009000C032FEF8D14CC033FE24
:10068A00F5D14CC000F000360090003600900036DC
:10069A0000900036009000C033FEE8D14CC034FE12
:1006AA00E5D14CC000F000360090003600900036CC
:1006BA0000900036009000C034FED8D14CC035FE00
:1006CA00D5D14CC000F000360090003600900036BC
:1006DA0000900036009000C035FEC8D14CC036FEEE
:1006EA00C5D14CC000F000360090003600900036AC
:1006FA0000900036009000C036FEB8D14CC037FEDC
:10070A00B5D14CC000F0003600900036009000369B
:10071A0000900036009000C037FEA8D14CC038FEC9
:10072A00A5D14CC000F0003600900036009000368B
:10073A0000900036009000C038FE98D14CC039FEB7
:10074A0095D14CC000F0003600900036009000367B
:10075A0000900036009000C039FE88D14CC03AFEA5
:10076A0085D14CC000F0003600900036009000366B
:10077A0000900036009000C03AFE78D14CC03BFE93
:10078A0075D14CC000F0003600900036009000365B
:10079A0000900036009000C03BFE68D14CC03CFE81
:1007AA0065D14CC000F0003600900036009000364B
:1007BA0000900036009000C03CFE58D14CC03DFE6F
:1007CA0055D14CC000F0003600900036009000363B
:1007DA0000900036009000C03DFE48D14CC03EFE5D
:1007EA0045D14CC000F0003600900036009000362B
:1007FA0000900036009000C03EFE38D14CC03FFE4B
:10080A0035D14CC000F0003600900036009000361A
:10081A0000900036009000C03FFE28D14CC040FE38
:10082A0025D14CC000F0003600900036009000360A
:10083A0000900036009000C040FE18D14CC041FE26
:10084A0015D14CC000F000360090003600900036FA
:10085A0000900036009000C041FE08D14CC042FE14
:10086A0005D14CC000F000360090003600900036EA
:10087A0000900036009000C042FEF8D04CC043FE03
:10088A00F5D04CC000F000360090003600900036DB
:10089A0000900036009000C043FEE8D04CC044FEF1
:1008AA00E5D04CC000F000360090003600900036CB
:1008BA0000900036009000C044FED8D04A50000A8A
:1008CA00D8B44CD64A50010AD8B44BD64A50020A78
:1008DA00D8B454D64A50030AD8B453D64A50040A54
:1008EA00D8B45CD64A50050AD8B45BD64A50060A30
:1008FA00D8B464D64A50070AD8B463D64A50080A0C
:10090A00D8B46CD64A50090AD8B46BD64A500A0AE7
:10091A00D8B474D64A500B0AD8B473D64A500C0AC3
:10092A00D8B47CD64A500D0AD8B47BD64A500E0A9F
:10093A00D8B484D64A500F0AD8B483D64A50100A7B
:10094A00D8B48CD64A50110AD8B48BD64A50120A57
:10095A00D8B494D64A50130AD8B493D64A50140A33
:10096A00D8B49CD64A50150AD8B49BD64A50160A0F
:10097A00D8B4A4D64A50170AD8B4A3D64A50180AEB
:10098A00D8B4ACD64A50190AD8B4ABD64A501A0AC7
:10099A00D8B4B4D64A501B0AD8B4B3D64A501C0AA3
:1009AA00D8B4BCD64A501D0AD8B4BBD64A501E0A7F
:1009BA00D8B4C4D64A501F0AD8B4C3D64A50200A5B
:1009CA00D8B4CCD64A50210AD8B4CBD64A50220A37
:1009DA00D8B4D4D64A50230AD8B4D3D64A50240A13
:1009EA00D8B4DCD64A50250AD8B4DBD64A50260AEF
:1009FA00D8B4E4D64A50270AD8B4E3D64A50280ACB
:100A0A00D8B4ECD64A50290AD8B4EBD64A502A0AA6
:100A1A00D8B4F4D64A502B0AD8B4F3D64A502C0A82
:100A2A00D8B4FCD64A502D0AD8B4FBD64A502E0A5E
:100A3A00D8B404D74A502F0AD8B403D74A50300A38
:100A4A00D8B40CD74A50310AD8B40BD74A50320A14
:100A5A00D8B414D74A50330AD8B413D74A50340AF0
:100A6A00D8B41CD74A50350AD8B41BD74B5202E027
:100A7A002DEC00F01AD149B002D0929001D09280A8
:100A8A00D0D149B002D0929201D09282CAD149B053
:100A9A0002D0929401D09284C4D149B002D09296E5
:100AAA0001D09286BED149B002D0929801D09288E4
:100ABA00B8D149B002D0929A01D0928AB2D149B043
:100ACA0002D0929C01D0928CACD149B002D09396BC
:100ADA0001D09386A6D149B002D0939001D09380D9
:100AEA00A0D149B002D0939201D093829AD149B051
:100AFA0002D0929E01D0928E94D149B002D09494A1
:100B0A0001D094848ED149B002D0939801D09388B1
:100B1A0088D149B002D0939A01D0938A82D149B040
:100B2A0002D0939401D093847CD149B002D0949698
:100B3A0001D0948676D149B002D0949A01D0948A91
:100B4A0070D149B002D0949801D094886AD149B042
:100B5A0002D0949C01D0948C64D149B002D0949E66
:100B6A0001D0948E5ED149B002D0959001D0958083
:100B7A0058D149B002D0959201D0958252D149B04C
:100B8A0002D0959401D095844CD149B002D0959663
:100B9A0001D0958646D149B002D0959801D0958862
:100BAA0040D149B002D0959A01D0958A3AD149B03C
:100BBA0002D0959C01D0958C34D149B002D0959E33
:100BCA0001D0958E2ED149B002D0969001D0968050
:100BDA0028D149B002D0969201D0968222D149B04A
:100BEA0002D0969401D096841CD149B002D0969E28
:100BFA0001D0968E16D149B002D0969801D0968827
:100C0A0010D149B002D0969601D096860AD149B041
:100C1A0002D0969C01D0968C04D149B002D0979A02
:100C2A0001D0978AFED049B002D0979401D0978418
:100C3A00F8D049B002D0969A01D0968AF2D049B03B
:100C4A0002D0979E01D0978EECD049B002D09892EC
:100C5A0001D09882E6D049B002D0979C01D0978CF7
:100C6A00E0D049B002D0979601D09786DAD049B041
:100C7A0002D0989401D09884D4D049B002D09896E2
:100C8A0001D09886CED049B002D0989801D09888E1
:100C9A00C8D049B002D0979801D09788C2D049B03D
:100CAA0002D0989001D09880BCD04850000AD8B49D
:100CBA00E2D64850010AD8B4E4D64850020AD8B459
:100CCA00E6D64850030AD8B4E8D64850040AD8B43D
:100CDA00EAD64850050AD8B4ECD64850060AD8B421
:100CEA00EED64850070AD8B4F0D64850080AD8B405
:100CFA00F2D64850090AD8B4F4D648500A0AD8B4E9
:100D0A00F6D648500B0AD8B4F8D648500C0AD8B4CC
:100D1A00FAD648500D0AD8B4FCD648500E0AD8B4B0
:100D2A00FED648500F0AD8B400D74850100AD8B493
:100D3A0002D74850110AD8B404D74850120AD8B476
:100D4A0006D74850130AD8B408D74850140AD8B45A
:100D5A000AD74850150AD8B40CD74850160AD8B43E
:100D6A000ED74850170AD8B410D74850180AD8B422
:100D7A0012D74850190AD8B414D748501A0AD8B406
:100D8A0016D748501B0AD8B418D748501C0AD8B4EA
:100D9A001AD748501D0AD8B41CD748501E0AD8B4CE
:100DAA001ED748501F0AD8B420D74850200AD8B4B2
:100DBA0022D74850210AD8B424D74850220AD8B496
:100DCA0026D74850230AD8B428D74850240AD8B47A
:100DDA002AD74850250AD8B42CD74850260AD8B45E
:100DEA002ED74850270AD8B430D74850280AD8B442
:100DFA0032D74850290AD8B434D748502A0AD8B426
:100E0A0036D748502B0AD8B438D748502C0AD8B409
:100E1A003AD748502D0AD8B43CD748502E0AD8B4ED
:080E2A003ED7FF0E006E12001E
:100E320045C048F046C049F047C04AF0010E4B6E2B
:060E420065EC00F0120057
:100E480039C0E1FF3AC0E2FF45C0E6FF37C000F015
:0A0E580038C001F059EC00F0120060
:100E6200086A080E0C6E003408360450085ED8B0CA
:0E0E720002D00826D89000360C2EF5D71200BC
:100E8000120E456E466A010E476ED3DF130E456E95
:0A0E9000010E466E476ACDDF120026
:100E9A00AC8A900EAB6E9EAA03D0AECF00F0FBD701
:020EAA00120034
:100EAC00446A41C0E9FF42C0EAFFEECF43F0435031
:100EBC00000A0DE043C045F0C1DF442A44504124F0
:100ECC00E96E000E4220EA6EEECF43F0F0D712002E
:100EDC0061C033F062C034F063C035F064C036F0EA
:100EEC0065C037F066C038F067C039F068C03AF0BA
:100EFC0069C02FF06AC030F06BC031F06CC032F0BA
:100F0C006DC02BF06EC02CF06FC02DF070C02EF0A9
:020F1C001200C1
:100F1E00EA50E25C02E1E950E15C02E2E66AF8D7EF
:020F2E001200AF
:100F30000900F5CFE6FF0006FBE10106F9E112002A
:100F40009FDFFF0E0001616FFF0E626F000E636F87
:100F5000000E646F7A0E656F000E666F4D0E676F40
:100F6000000E686FFF0E696FFF0E6A6F000E6B6FE9
:100F7000000E6C6FFF0E6D6FFF0E6E6F000E6F6FC9
:0A0F8000000E706FABDF89DF120076
:0C0F8A003BC041F03CC042F08CDF120084
:100F96003E6A030E3E5C0AE23E503C24E16E000EC1
:100FA6003D20E26E200EE66E3E2AF3D73E503C24EC
:100FB600E16E000E3D20E26EE66A3E063E503C249F
:100FC6003F6E000E3D20406E0A0E046E3BC000F0E0
:100FD60045DF08C000F0300E00263FC0E1FF40C0EC
:100FE600E2FF00C0E6FF0A0E046E3BC000F036DFEB
:100FF60000C03BF00050000A01E102D03E06DED7F9
:021006001200D6
:101008005EEC08F04FEC08F00E01476B67860F01A5
:10101800306B8A0EAF6EAC848FDF090E0B6E1E0E1E
:101028000C6EE40E0D6E0D2EFED70C2EFCD70B2E7B
:10103800FAD70000150E3B6E000E3C6EA2DF83CF80
:101048003BF0290E3C6E000E3D6EA1DF290E3B6E73
:10105800000E3C6E96DF0A0E4D6E3DEC00F00D0E54
:101068004D6E3DEC00F0290E0B6E960E0C6E7F0E49
:101078000D6E0D2EFED70C2EFCD70B2EFAD7DFD710
:02108800FFD790
:10109E0010EE15F0140E006E010E016E8A0EF66E35
:0E10AE00100EF76E000EF86E98EC07F01200B0
:0E10BC0010EE15F000EE3BF08FEC07F0120086
:10108A004578616D706C65203120537461727465A6
:04109A00640D0A00D7
:020000040000FA
:10FFF000A0F703FC22F0FFF7F3FEFFFC05F0F8F298
:00000001FF
