:040000001EEF00F0FF
:1000080000C015F0C2CF16F0C3CF17F016C08CFF92
:1000180017C000F0016A00C08DFF9E9C15C000F05B
:020028001100C5
:10002A00EA50E25C02E1E950E15C02E2E66AF8D7F2
:02003A001200B2
:10003C004CEC00F00E0147879286956A966A700E1A
:10004C00C06EC184836B1F0E8B6F020E8A6F8C6B1C
:10005C00030E866FC18EF28CF28E9D8C090E0B6E88
:10006C001E0E0C6EE40E0D6E0D2EFED70C2EFCD754
:10007C000B2EFAD70000E6939898E5838F88C08200
:0A008C00C0A001D0FDD7FBD7FFD7BD
:0E00980010EE16F000EE18F015EC00F012005D
:020000040000FA
:10FFF000A0F703FC22F0FFF7F3FEFFFC05F0F8F298
:00000001FF
