:1000000052EF02F00000000000EF00F000000000DE
:0A0010000000000000000000F3D71C
:10001C004B50030AD8B48A804B50040AD8B48A8255
:02002C001200C0
:10002E00F250026EF29E0500FF6A0150FE6E005005
:08003E00FD6E02BEF28E1200FD
:100046000F011AB509D01F0E1815016E0150000ACE
:0C00560003E1010E006E01D0006A1200F0
:04006200C58412003F
:10006600C7B409D01F0EC514016E0150000A03E182
:0A007600010E006E01D0006A1200B6
:10008000A19C45C003FF15C046F016C047F017C03D
:1000900048F018C049F00F011AA51FD015501610CE
:1000A0001710181019E046504710481049100EE17B
:1000B00027C0E1FF28C0E2FF040EE66E25C000F075
:1000C00026C001F0B4DF010E006E38D0010E465E8E
:1000D000000E475A485A495ADED715C046F016C096
:1000E00047F017C048F018C049F0A1BC1FD0155008
:1000F00016101710181019E04650471048104910F4
:100100000EE127C0E1FF28C0E2FF040EE66E25C025
:1001100000F026C001F08BDF010E006E0FD0010E43
:10012000465E000E475A485A495ADFD70F0118BD9C
:0E01300002D0006A03D01885020E006E120085
:10013E0015C045F016C046F017C047F018C048F07D
:10014E000F0118830F0118A31DD01550161017108C
:10015E00181017E045504610471048100CE127C004
:10016E00E1FF28C0E2FF060EE66E25C000F026C0B5
:10017E0001F056DF07D0010E455E000E465A475A73
:06018E00485AE0D7120000
:1001940019C047F01AC048F01BC049F01CC04AF00F
:1001A4009E96C5869EB61DD019501A101B101C10A1
:1001B40017E04750481049104A100CE137C0E1FFDE
:1001C40038C0E2FF030EE66E35C000F036C001F021
:1001D4002CDF07D0010E475E000E485A495A4A5A8E
:1001E400E1D7C9CF46F04550000A02E1C58A01D0E3
:1001F400C59A9E96C58819C047F01AC048F01BC01E
:1002040049F01CC04AF09EB61DD019501A101B109C
:100214001C1017E04750481049104A100CE137C031
:10022400E1FF38C0E2FF030EE66E35C000F036C0D1
:1002340001F0FBDE07D0010E475E000E485A495A12
:0A0244004A5AE1D746C000F012004C
:06024E000F0118851200EB
:1002540015C047F016C048F017C049F018C04AF05E
:10026400456A466A4650120802E145508E0807E383
:10027400E8DE005201E003D0454A462AF3D7120EC5
:10028400465C02E18F0E455C03E37B0E006E25D0D5
:100294000F0118810F0118A11FD015501610171047
:1002A400181019E04750481049104A100EE127C0B1
:1002B400E1FF28C0E2FF050EE66E25C000F026C06F
:1002C40001F0B3DE010E006E08D0010E475E000E91
:0C02D400485A495A4A5ADED7006A120004
:1002E0003DC015F03EC016F03FC017F040C018F0FA
:1002F00041C025F042C026F043C027F044C028F09A
:020300001200E9
:10030200EA50E25C02E1E950E15C02E2E66AF8D717
:020312001200D7
:10031400460E316E000E326E000E336E000E346ED9
:10032400540E296E020E2A6E000E2B6E000E2C6ED9
:100334003E0E2D6E010E2E6E000E2F6E000E306ED0
:100344008C0E1D6E030E1E6E3D0E1F6E000E206E73
:10035400800E216E000E226E450E236E000E246E5A
:100364004E0E396E020E3A6E000E3B6E000E3C6E5F
:10037400959A959C8C9A8C9C958A958C0F011A9FC2
:080384001A9D380E196F1200DA
:10038C0015C03FF016C040F017C041F018C042F045
:10039C00A19C0F011887A1BC1DD015501610171069
:1003AC00181017E03F504010411042100CE127C0CC
:1003BC00E1FF28C0E2FF030EE66E25C000F026C068
:1003CC0001F02FDE07D0010E3F5E000E405A415A5D
:1003DC00425AE1D703CF3EF03D50000A03E10F0132
:1003EC00188B02D00F01189BA19C188915C03FF0E7
:1003FC0016C040F017C041F018C042F0A1BC1DD08F
:10040C00155016101710181017E03F5040104110DF
:10041C0042100CE127C0E1FF28C0E2FF030EE66E9C
:10042C0025C000F026C001F0FCDD07D0010E3F5EB8
:10043C00000E405A415A425AE1D73EC000F0120019
:10044C0003DFA00E456E16DE3DC045F013DE71DEF7
:10045C00A10E456E0FDE456A97DE00C03EF0FDDD55
:10046C00005202E10000FBD7F6DD3EC000F01200A6
:10047C000900F5CFE6FF0006FBE10106F9E11200E9
:10048C00E3DEA00E456EF6DD3DC045F0F3DD3EC06B
:08049C0045F0F0DDD6DE120090
:1004A400B4EC02F0A4EC02F0939093928A6A956AF9
:1004B4008C6AA00E0F01026F2BDF090E0B6E1E0E4D
:1004C4000C6EE40E0D6E0D2EFED70C2EFCD70B2EEB
:1004D400FAD70000E80E3D6E030E3E6E000E3F6E2E
:1004E400406E1C0E416E000E426E4B0E436E000EAB
:1004F400446EF4DEADDE456AC1DD3D6A45DFA5DE4E
:10050400020E3D6EA50E3E6EBFDF680E0C6EE40E4D
:100514000D6E0D2EFED70C2EFCD70000020E3D6E84
:1005240093DF00C08CFF680E0C6EE40E0D6E0D2E72
:0C053400FED70C2EFCD70000FFD7FFD72D
:1005480010EE15F0080E006E010E016E400EF66EEC
:0E055800050EF76E000EF86E3EEC02F012007B
:0E05680010EE15F000EE3DF081EC01F01200F7
:0405400000000000B7
:0405440000000000B3
:020000040000FA
:10FFF000A0F703FC22F0FFF7F3FEFFFC05F0F8F298
:00000001FF
