:04000000C9EF07F04D
:1000080000C016F001C015F094EC07F000C0ADFF79
:0C0018009E9A16C000F015C001F0110007
:100024000F012EB302D00000FBD758C029FF1200E5
:100034000F0132B302D00000FBD758C01DFF1200DD
:0E004400ACB202D00000FCD758C0ADFF1200D5
:100052000E01FEB302D00000FBD758C0F9FE120019
:0800620057C058F0EEDF120058
:08006A0057C058F0E2DF12005C
:0C007200550E7E6EAA0E7E6E669C12007B
:08007E0057C058F0E0DF12004A
:0800860057C058F0D4DF12004E
:08008E0057C058F0C8DF120052
:0800960057C058F0DBDF120037
:08009E0057C058F0D7DF120033
:0800A60057C058F0BCDF120046
:0C00AE00550E7E6EAA0E7E6E668C12004F
:1000BA0052502E0803E2006A10EF07F05350000A6C
:1000CA00D8A436D2555201E0CFDF73D154C012FE04
:1000DA002CD254C000F00036009000360090003652
:1000EA0000900036009000C012FE1FD254C013FECA
:1000FA001CD254C000F00036009000360090003642
:10010A0000900036009000C013FE0FD254C014FEB7
:10011A000CD254C000F00036009000360090003631
:10012A0000900036009000C014FEFFD154C015FEA6
:10013A00FCD154C000F00036009000360090003622
:10014A0000900036009000C015FEEFD154C016FE94
:10015A00ECD154C000F00036009000360090003612
:10016A0000900036009000C016FEDFD154C017FE82
:10017A00DCD154C000F00036009000360090003602
:10018A0000900036009000C017FECFD154C018FE70
:10019A00CCD154C000F000360090003600900036F2
:1001AA0000900036009000C018FEBFD154C019FE5E
:1001BA00BCD154C000F000360090003600900036E2
:1001CA0000900036009000C019FEAFD154C01AFE4C
:1001DA00ACD154C000F000360090003600900036D2
:1001EA0000900036009000C01AFE9FD154C01BFE3A
:1001FA009CD154C000F000360090003600900036C2
:10020A0000900036009000C01BFE8FD154C01CFE27
:10021A008CD154C000F000360090003600900036B1
:10022A0000900036009000C01CFE7FD154C01DFE15
:10023A007CD154C000F000360090003600900036A1
:10024A0000900036009000C01DFE6FD154C01EFE03
:10025A006CD154C000F00036009000360090003691
:10026A0000900036009000C01EFE5FD154C01FFEF1
:10027A005CD154C000F00036009000360090003681
:10028A0000900036009000C01FFE4FD154C020FEDF
:10029A004CD154C000F00036009000360090003671
:1002AA0000900036009000C020FE3FD154C021FECD
:1002BA003CD154C000F00036009000360090003661
:1002CA0000900036009000C021FE2FD154C022FEBB
:1002DA002CD154C000F00036009000360090003651
:1002EA0000900036009000C022FE1FD154C023FEA9
:1002FA001CD154C000F00036009000360090003641
:10030A0000900036009000C023FE0FD154C024FE96
:10031A000CD154C000F00036009000360090003630
:10032A0000900036009000C024FEFFD054C025FE85
:10033A00FCD054C000F00036009000360090003621
:10034A0000900036009000C025FEEFD054C026FE73
:10035A00ECD054C000F00036009000360090003611
:10036A0000900036009000C026FEDFD054C027FE61
:10037A00DCD054C000F00036009000360090003601
:10038A0000900036009000C027FECFD054C028FE4F
:10039A00CCD054C000F000360090003600900036F1
:1003AA0000900036009000C028FEBFD054C029FE3D
:1003BA00BCD05250000AD8B489D65250010AD8B4D7
:1003CA0088D65250020AD8B491D65250030AD8B4E9
:1003DA0090D65250040AD8B499D65250050AD8B4C5
:1003EA0098D65250060AD8B4A1D65250070AD8B4A1
:1003FA00A0D65250080AD8B4A9D65250090AD8B47D
:10040A00A8D652500A0AD8B4B1D652500B0AD8B458
:10041A00B0D652500C0AD8B4B9D652500D0AD8B434
:10042A00B8D652500E0AD8B4C1D652500F0AD8B410
:10043A00C0D65250100AD8B4C9D65250110AD8B4EC
:10044A00C8D65250120AD8B4D1D65250130AD8B4C8
:10045A00D0D65250140AD8B4D9D65250150AD8B4A4
:10046A00D8D65250160AD8B4E1D65250170AD8B480
:10047A00E0D65250180AD8B4E9D65250190AD8B45C
:10048A00E8D652501A0AD8B4F1D652501B0AD8B438
:10049A00F0D652501C0AD8B4F9D652501D0AD8B414
:1004AA00F8D652501E0AD8B401D752501F0AD8B4EF
:1004BA0000D75250200AD8B409D75250210AD8B4CA
:1004CA0008D75250220AD8B411D75250230AD8B4A6
:1004DA0010D75250240AD8B419D75250250AD8B482
:1004EA0018D75250260AD8B421D75250270AD8B45E
:1004FA0020D75250280AD8B429D75250290AD8B43A
:10050A0028D752502A0AD8B431D752502B0AD8B415
:10051A0030D752502C0AD8B439D752502D0AD8B4F1
:10052A0038D752502E0AD8B441D7555201E0BADD15
:10053A005350010AD8A496D2555201E095DD52C013
:10054A0056F05632569E5632569EB0D156C02AFEA4
:10055A0085D256C000F00036009000360090003672
:10056A0000900036009000C02AFE78D256C02BFEBA
:10057A0075D256C000F00036009000360090003662
:10058A0000900036009000C02BFE68D256C02CFEA8
:10059A0065D256C000F00036009000360090003652
:1005AA0000900036009000C02CFE58D256C02DFE96
:1005BA0055D256C000F00036009000360090003642
:1005CA0000900036009000C02DFE48D256C02EFE84
:1005DA0045D256C000F00036009000360090003632
:1005EA0000900036009000C02EFE38D256C02FFE72
:1005FA0035D256C000F00036009000360090003622
:10060A0000900036009000C02FFE28D256C030FE5F
:10061A0025D256C000F00036009000360090003611
:10062A0000900036009000C030FE18D256C031FE4D
:10063A0015D256C000F00036009000360090003601
:10064A0000900036009000C031FE08D256C032FE3B
:10065A0005D256C000F000360090003600900036F1
:10066A0000900036009000C032FEF8D156C033FE2A
:10067A00F5D156C000F000360090003600900036E2
:10068A0000900036009000C033FEE8D156C034FE18
:10069A00E5D156C000F000360090003600900036D2
:1006AA0000900036009000C034FED8D156C035FE06
:1006BA00D5D156C000F000360090003600900036C2
:1006CA0000900036009000C035FEC8D156C036FEF4
:1006DA00C5D156C000F000360090003600900036B2
:1006EA0000900036009000C036FEB8D156C037FEE2
:1006FA00B5D156C000F000360090003600900036A2
:10070A0000900036009000C037FEA8D156C038FECF
:10071A00A5D156C000F00036009000360090003691
:10072A0000900036009000C038FE98D156C039FEBD
:10073A0095D156C000F00036009000360090003681
:10074A0000900036009000C039FE88D156C03AFEAB
:10075A0085D156C000F00036009000360090003671
:10076A0000900036009000C03AFE78D156C03BFE99
:10077A0075D156C000F00036009000360090003661
:10078A0000900036009000C03BFE68D156C03CFE87
:10079A0065D156C000F00036009000360090003651
:1007AA0000900036009000C03CFE58D156C03DFE75
:1007BA0055D156C000F00036009000360090003641
:1007CA0000900036009000C03DFE48D156C03EFE63
:1007DA0045D156C000F00036009000360090003631
:1007EA0000900036009000C03EFE38D156C03FFE51
:1007FA0035D156C000F00036009000360090003621
:10080A0000900036009000C03FFE28D156C040FE3E
:10081A0025D156C000F00036009000360090003610
:10082A0000900036009000C040FE18D156C041FE2C
:10083A0015D156C000F00036009000360090003600
:10084A0000900036009000C041FE08D156C042FE1A
:10085A0005D156C000F000360090003600900036F0
:10086A0000900036009000C042FEF8D056C043FE09
:10087A00F5D056C000F000360090003600900036E1
:10088A0000900036009000C043FEE8D056C044FEF7
:10089A00E5D056C000F000360090003600900036D1
:1008AA0000900036009000C044FED8D05450000A90
:1008BA00D8B44CD65450010AD8B44BD65450020A74
:1008CA00D8B454D65450030AD8B453D65450040A50
:1008DA00D8B45CD65450050AD8B45BD65450060A2C
:1008EA00D8B464D65450070AD8B463D65450080A08
:1008FA00D8B46CD65450090AD8B46BD654500A0AE4
:10090A00D8B474D654500B0AD8B473D654500C0ABF
:10091A00D8B47CD654500D0AD8B47BD654500E0A9B
:10092A00D8B484D654500F0AD8B483D65450100A77
:10093A00D8B48CD65450110AD8B48BD65450120A53
:10094A00D8B494D65450130AD8B493D65450140A2F
:10095A00D8B49CD65450150AD8B49BD65450160A0B
:10096A00D8B4A4D65450170AD8B4A3D65450180AE7
:10097A00D8B4ACD65450190AD8B4ABD654501A0AC3
:10098A00D8B4B4D654501B0AD8B4B3D654501C0A9F
:10099A00D8B4BCD654501D0AD8B4BBD654501E0A7B
:1009AA00D8B4C4D654501F0AD8B4C3D65450200A57
:1009BA00D8B4CCD65450210AD8B4CBD65450220A33
:1009CA00D8B4D4D65450230AD8B4D3D65450240A0F
:1009DA00D8B4DCD65450250AD8B4DBD65450260AEB
:1009EA00D8B4E4D65450270AD8B4E3D65450280AC7
:1009FA00D8B4ECD65450290AD8B4EBD654502A0AA3
:100A0A00D8B4F4D654502B0AD8B4F3D654502C0A7E
:100A1A00D8B4FCD654502D0AD8B4FBD654502E0A5A
:100A2A00D8B404D754502F0AD8B403D75450300A34
:100A3A00D8B40CD75450310AD8B40BD75450320A10
:100A4A00D8B414D75450330AD8B413D75450340AEC
:100A5A00D8B41CD75450350AD8B41BD7555202E023
:100A6A0057EC00F01AD153B002D0929001D0928084
:100A7A00D0D153B002D0929201D09282CAD153B04F
:100A8A0002D0929401D09284C4D153B002D09296EB
:100A9A0001D09286BED153B002D0929801D09288EA
:100AAA00B8D153B002D0929A01D0928AB2D153B03F
:100ABA0002D0929C01D0928CACD153B002D09396C2
:100ACA0001D09386A6D153B002D0939001D09380DF
:100ADA00A0D153B002D0939201D093829AD153B04D
:100AEA0002D0929E01D0928E94D153B002D09494A7
:100AFA0001D094848ED153B002D0939801D09388B8
:100B0A0088D153B002D0939A01D0938A82D153B03C
:100B1A0002D0939401D093847CD153B002D094969E
:100B2A0001D0948676D153B002D0949A01D0948A97
:100B3A0070D153B002D0949801D094886AD153B03E
:100B4A0002D0949C01D0948C64D153B002D0949E6C
:100B5A0001D0948E5ED153B002D0959001D0958089
:100B6A0058D153B002D0959201D0958252D153B048
:100B7A0002D0959401D095844CD153B002D0959669
:100B8A0001D0958646D153B002D0959801D0958868
:100B9A0040D153B002D0959A01D0958A3AD153B038
:100BAA0002D0959C01D0958C34D153B002D0959E39
:100BBA0001D0958E2ED153B002D0969001D0968056
:100BCA0028D153B002D0969201D0968222D153B046
:100BDA0002D0969401D096841CD153B002D0969E2E
:100BEA0001D0968E16D153B002D0969801D096882D
:100BFA0010D153B002D0969601D096860AD153B03E
:100C0A0002D0969C01D0968C04D153B002D0979A08
:100C1A0001D0978AFED053B002D0979401D097841E
:100C2A00F8D053B002D0969A01D0968AF2D053B037
:100C3A0002D0979E01D0978EECD053B002D09892F2
:100C4A0001D09882E6D053B002D0979C01D0978CFD
:100C5A00E0D053B002D0979601D09786DAD053B03D
:100C6A0002D0989401D09884D4D053B002D09896E8
:100C7A0001D09886CED053B002D0989801D09888E7
:100C8A00C8D053B002D0979801D09788C2D053B039
:100C9A0002D0989001D09880BCD05250000AD8B4A3
:100CAA00E2D65250010AD8B4E4D65250020AD8B455
:100CBA00E6D65250030AD8B4E8D65250040AD8B439
:100CCA00EAD65250050AD8B4ECD65250060AD8B41D
:100CDA00EED65250070AD8B4F0D65250080AD8B401
:100CEA00F2D65250090AD8B4F4D652500A0AD8B4E5
:100CFA00F6D652500B0AD8B4F8D652500C0AD8B4C9
:100D0A00FAD652500D0AD8B4FCD652500E0AD8B4AC
:100D1A00FED652500F0AD8B400D75250100AD8B48F
:100D2A0002D75250110AD8B404D75250120AD8B472
:100D3A0006D75250130AD8B408D75250140AD8B456
:100D4A000AD75250150AD8B40CD75250160AD8B43A
:100D5A000ED75250170AD8B410D75250180AD8B41E
:100D6A0012D75250190AD8B414D752501A0AD8B402
:100D7A0016D752501B0AD8B418D752501C0AD8B4E6
:100D8A001AD752501D0AD8B41CD752501E0AD8B4CA
:100D9A001ED752501F0AD8B420D75250200AD8B4AE
:100DAA0022D75250210AD8B424D75250220AD8B492
:100DBA0026D75250230AD8B428D75250240AD8B476
:100DCA002AD75250250AD8B42CD75250260AD8B45A
:100DDA002ED75250270AD8B430D75250280AD8B43E
:100DEA0032D75250290AD8B434D752502A0AD8B422
:100DFA0036D752502B0AD8B438D752502C0AD8B406
:100E0A003AD752502D0AD8B43CD752502E0AD8B4E9
:080E1A003ED7FF0E006E12002E
:100E2200F250026EF29E0500FF6A0150FE6E005003
:080E3200FD6E02BEF28E1200FB
:100E3A004DC052F04EC053F04FC054F0010E556EE3
:060E4A005DEC00F0120057
:100E500039C0E1FF3AC0E2FF4DC0E6FF37C000F005
:080E600038C001F0DEDF1200D2
:100E6800120E4D6E4E6A010E4F6EE3DF130E4D6E7D
:0A0E7800010E4E6E4F6ADDDF12001E
:100E8200AECF01F0ABA202D0AB98AB8801C000F0AC
:020E920012004C
:100E9400406A3DC0E9FF3EC0EAFFEECF3FF03F505D
:100EA400000A0DE03FC04DF0D1DF402A40503D2400
:100EB400E96E000E3E20EA6EEECF3FF0F0D712004E
:100EC4003DC033F03EC034F03FC035F040C036F092
:100ED40041C037F042C038F043C039F044C03AF062
:100EE40045C02FF046C030F047C031F048C032F062
:100EF40049C02BF04AC02CF04BC02DF04CC02EF052
:020F04001200D9
:100F0600AC8A900EAB6E9EAA03D0AECF00F0FBD794
:020F16001200C7
:100F18000900F5CFE6FF0006FBE10106F9E1120042
:040F2800ACDF120028
:100F2C009DDF280E3D6E0F0E3E6E000E3F6E000EC6
:100F3C00406E7E0E416E000E426E570E436E000EDA
:100F4C00446EFF0E456EFF0E466E000E476E000E91
:100F5C00486EFF0E496EFF0E4A6E000E4B6E000E71
:080F6C004C6EAADFCADF12007F
:0C0F74003BC03DF03CC03EF08BDF1200A3
:100F8000EA50E25C02E1E950E15C02E2E66AF8D78D
:020F900012004D
:100F920004EC08F0F5EC07F067860F01306B8A0E5F
:100FA200AF6EAC84C2DF090E0B6E1E0E0C6EE40E29
:100FB2000D6E0D2EFED70C2EFCD70B2EFAD700008D
:100FC200170E3B6E000E3C6ED4DFF28CF28E9D8AC1
:040FD200FFD7FFD76F
:100FEA0010EE17F0140E006E010E016ED60EF66E9C
:0E0FFA000F0EF76E000EF86E8CEC07F0120072
:0E10080010EE17F000EE3BF0C0EC07F0120007
:100FD6004578616D706C6520332053746172746559
:040FE600640D0A008C
:020000040000FA
:10FFF000A0F703FC22F0FFF7F3FEFFFC05F0F8F298
:00000001FF
