:100000009FEF02F00000000000EF00F00000000091
:0A0010000000000000000000F3D71C
:10001C00020E0C6E080E0D6E0D2EFED70C2EFCD79C
:04002C0000001200BE
:10003000730E0C6E470E0D6E0D2EFED70C2EFCD7D8
:06004000000000001200A8
:0A004600050E0D6E0D2EFED7120000
:100050000F011AB509D01F0E1815016E0150000AC4
:0C00600003E1010E006E01D0006A1200E6
:10006C00F250026EF29E0500FF6A0150FE6E0050C7
:08007C00FD6E02BEF28E1200BF
:100084004BBE03D00E01E89F02D00E01E88F4BBC9B
:1000940002D0E89D01D0E88D4BBA02D0E89B01D094
:1000A400E88B4BB802D0E89901D0E88946B002D079
:1000B400E58F01D0E59F9186C4DF91964BB602D0BF
:1000C400E89F01D0E88F4BB402D0E89D01D0E88DC1
:1000D4004BB202D0E89B01D0E88B4BB002D0E89938
:1000E40001D0E88946B002D0E58F01D0E59F918622
:1000F400A8DF919646A002D099DF01D08DDF1200CF
:060104000F011885120036
:10010A0015C04BF016C04CF017C04DF018C04EF099
:10011A000F0118830F0118A31DD0155016101710C0
:10012A00181017E04B504C104D104E100CE142C005
:10013A00E1FF43C0E2FF060EE66E40C000F041C098
:10014A0001F08FDF07D0010E4B5E000E4C5A4D5A5C
:06015A004E5AE0D712002E
:1001600015C052F016C053F017C054F018C055F027
:10017000A19C0F011887A1BC1DD015501610171097
:10018000181017E052505310541055100CE142C093
:10019000E1FF43C0E2FF030EE66E40C000F041C045
:1001A00001F064DF07D0010E525E000E535A545A1C
:1001B000555AE1D703CF4CF04B50000A03E10F0131
:1001C000188B02D00F01189BA19C188915C052F002
:1001D00016C053F017C054F018C055F0A1BC1DD084
:1001E000155016101710181017E0525053105410D5
:1001F00055100CE142C0E1FF43C0E2FF030EE66E82
:1002000040C000F041C001F031DF07D0010E525E66
:10021000000E535A545A555AE1D74CC000F0120000
:10022000A19C4BC003FF15C04CF016C04DF017C089
:100230004EF018C04FF00F011AA51FD01550161020
:100240001710181019E04C504D104E104F100EE1C1
:1002500042C0E1FF43C0E2FF040EE66E40C000F082
:1002600041C001F003DF010E006E38D0010E4C5E7C
:10027000000E4D5A4E5A4F5ADED715C04CF016C0DC
:100280004DF017C04EF018C04FF0A1BC1FD0155054
:1002900016101710181019E04C504D104E104F103A
:1002A0000EE142C0E1FF43C0E2FF040EE66E40C033
:1002B00000F041C001F0DADE010E006E0FD0010E39
:1002C0004C5E000E4D5A4E5A4F5ADFD70F0118BDE3
:0E02D00002D0006A03D01885020E006E1200E4
:1002DE0015C052F016C053F017C054F018C055F0A8
:1002EE004B6A4C6A4C50120802E14B508E0807E3E1
:1002FE00A8DE005201E003D04B4A4C2AF3D7120E6F
:10030E004C5C02E18F0E4B5C03E37B0E006E25D03E
:10031E000F0118810F0118A11FD0155016101710BC
:10032E00181019E052505310541055100EE142C0DF
:10033E00E1FF43C0E2FF050EE66E40C000F041C093
:10034E0001F08DDE010E006E08D0010E525E000E21
:0C035E00535A545A555ADED7006A120058
:10036A00500E306E000E316E000E326E000E336E7D
:10037A00DE0E2C6E020E2D6E000E2E6E000E2F6EED
:10038A000A0E286E010E296E000E2A6E000E2B6EC2
:10039A00600E3C6E010E3D6E4B0E3E6E000E3F6EC1
:1003AA00200E386E020E396E4B0E3A6E000E3B6E00
:1003BA00040E346E010E356E000E366E000E376E68
:1003CA00959A959C8C9A8C9C958A958C0F011A9F6C
:0803DA001A9D380E196F120084
:1003E2000900F5CFE6FF0006FBE10106F9E1120084
:1003F200EA50E25C02E1E950E15C02E2E66AF8D727
:020402001200E6
:100404009A960E01E69FE999E99BE99DE99F9196E9
:10041400E59FE89FE89DE89BE89908DE07DE06DE95
:10042400E88BE88991860DDE919600DE918609DEDF
:100434009196FCDD918605DE9196F8DDE89991862A
:1004440000DE9196F3DD9186FCDD9196E89BE88FC2
:100454009186F7DD9196EADDE89FE8899186F1DDE2
:100464009196E8999186EDDD9196E0DD9186E9DD3E
:100474009196E8899186E5DD9196D8DDE899918693
:10048400E0DD9196E88FE88DE88BE8899186D9DDE7
:080494009196CCDD46801200B8
:10049C000FD0800E476E19D0C00E476E16D0940E3A
:1004AC00476E13D0D40E476E10D0800E476E0DD011
:1004BC004750010AEEE04750020AEEE04750030AAB
:1004CC00EEE04750040AEEE0F0D74804006E4750C7
:1004DC00002600C047F0468000C04BF0CDDD4690B2
:0A04EC0049C04BF0C9DD4680120044
:1004F600F3DEA00E4B6E91DE47C04BF08EDE02DEC1
:10050600A10E4B6E8ADE4B6A28DE00C048F09DDDE8
:10051600005202E10000FBD7F2DD48C000F01200F5
:10052600DBDEA00E4B6E79DE47C04BF076DE48C0B0
:080536004BF073DEE4DD12005E
:10053E002AEC03F01BEC03F0A00E0F01026F0EDF8E
:10054E00090E0B6E1E0E0C6EE40E0D6E0D2EFED7EA
:10055E000C2EFCD70B2EFAD700004DDF010E4B6E82
:10056E008ADD0C0E4B6E87DD446A010E456E190E48
:10057E00E96E000EEA6E4450E926D8B0EA2AEECFB4
:10058E0001F001C045F00150000A17E0442A44C0B2
:10059E0047F045C048F0C0DF680E0C6EE40E0D6EDD
:1005AE000D2EFED70C2EFCD70000010E476E44C058
:1005BE0048F045C049F06BDFDAD74450010F476E63
:1005CE00486AAADF680E0C6EE40E0D6E0D2EFED775
:1005DE000C2EFCD70000010E446E010E456E44C079
:1005EE0047F082DF00C045F00050000A12E0020E14
:1005FE00476E44C048F045C049F049DF680E0C6EA6
:10060E00E40E0D6E0D2EFED70C2EFCD70000442AE4
:04061E00E6D7FFD745
:1006360010EE15F0130E006E010E016E220EF66E10
:0E064600060EF76E000EF86EF1EC01F01200D9
:0E06540010EE15F000EE46F0F9EC01F0120089
:0406220000000000D4
:0F0626004976616E732049324320546573740026
:020000040000FA
:10FFF000A0F703FC22F0FFF7F3FEFFFC05F0F8F298
:00000001FF
