:1000000017EF00F00000000000EF00F0000000001B
:0A0010000000000000000000F3D71C
:10001C00EA50E25C02E1E950E15C02E2E66AF8D700
:02002C001200C0
:10002E004CEC00F00E0147879286956A966A700E28
:10003E00C06EC184836B1F0E8B6F020E8A6F8C6B2A
:10004E00030E866FC18E090E0B6E1E0E0C6EE40E25
:10005E000D6E0D2EFED70C2EFCD70B2EFAD70000F0
:10006E00E6939898E5838F88C082C0A001D0FDD713
:10007E00C2CF15F0C3CF16F015C08CFF16C000F01E
:0A008E00016A00C08DFFF0D7FFD714
:0E00980010EE15F000EE17F00EEC00F0120066
:020000040000FA
:10FFF000A0F703FC22F0FFF7F3FEFFFC05F0F8F298
:00000001FF
