:1000000017EF00F00000000000EF00F0000000001B
:0A0010000000000000000000F3D71C
:10001C00EA50E25C02E1E950E15C02E2E66AF8D700
:02002C001200C0
:10002E0032EC00F00A0E166EF20E166E320E156ED1
:10003E00CE0E156EE60E156E0A0E186E000E196EA9
:10004E00F20E186E030E196E320E176EE60E176E46
:06005E000000FED7FFD7F1
:0E00640010EE15F000EE1AF00EEC00F0120097
:020000040001F9
:10FFF000A0F7ABFC22F0FFF7FBFEFFFC1DF0F8F2D0
:00000001FF
