:10000000CFEF07F00000000000EF00F0000000005C
:0A0010000000000000000000F3D71C
:10001C000F012EB302D00000FBD75FC029FF1200E6
:10002C000E01FEB302D00000FBD75FC0F9FE120038
:0E003C00ACB202D00000FCD75FC0ADFF1200D6
:10004A000F0132B302D00000FBD75FC01DFF1200C0
:08005A005EC05FF0F5DF12004B
:0C006200550E7E6EAA0E7E6E669C12008B
:08006E005EC05FF0EBDF120041
:080076005EC05FF0E0DF120044
:0C007E00550E7E6EAA0E7E6E668C12007F
:08008A005EC05FF0D6DF12003A
:080092005EC05FF0C2DF120046
:08009A005EC05FF0C6DF12003A
:0800A2005EC05FF0C2DF120036
:0800AA005EC05FF0B6DF12003A
:1000B200F250026EF29E0500FF6A0150FE6E005081
:0800C200FD6E02BEF28E120079
:1000CA00000171512E0803E2006A19EF07F072511C
:1000DA00000AD8A436D2745301E0BEDF73D173C0CC
:1000EA0012FE2CD273C000F0003600900036009049
:1000FA00003600900036009000C012FE1FD273C076
:10010A0013FE1CD273C000F0003600900036009037
:10011A00003600900036009000C013FE0FD273C064
:10012A0014FE0CD273C000F0003600900036009026
:10013A00003600900036009000C014FEFFD173C054
:10014A0015FEFCD173C000F0003600900036009016
:10015A00003600900036009000C015FEEFD173C043
:10016A0016FEECD173C000F0003600900036009005
:10017A00003600900036009000C016FEDFD173C032
:10018A0017FEDCD173C000F00036009000360090F4
:10019A00003600900036009000C017FECFD173C021
:1001AA0018FECCD173C000F00036009000360090E3
:1001BA00003600900036009000C018FEBFD173C010
:1001CA0019FEBCD173C000F00036009000360090D2
:1001DA00003600900036009000C019FEAFD173C0FF
:1001EA001AFEACD173C000F00036009000360090C1
:1001FA00003600900036009000C01AFE9FD173C0EE
:10020A001BFE9CD173C000F00036009000360090AF
:10021A00003600900036009000C01BFE8FD173C0DC
:10022A001CFE8CD173C000F000360090003600909E
:10023A00003600900036009000C01CFE7FD173C0CB
:10024A001DFE7CD173C000F000360090003600908D
:10025A00003600900036009000C01DFE6FD173C0BA
:10026A001EFE6CD173C000F000360090003600907C
:10027A00003600900036009000C01EFE5FD173C0A9
:10028A001FFE5CD173C000F000360090003600906B
:10029A00003600900036009000C01FFE4FD173C098
:1002AA0020FE4CD173C000F000360090003600905A
:1002BA00003600900036009000C020FE3FD173C087
:1002CA0021FE3CD173C000F0003600900036009049
:1002DA00003600900036009000C021FE2FD173C076
:1002EA0022FE2CD173C000F0003600900036009038
:1002FA00003600900036009000C022FE1FD173C065
:10030A0023FE1CD173C000F0003600900036009026
:10031A00003600900036009000C023FE0FD173C053
:10032A0024FE0CD173C000F0003600900036009015
:10033A00003600900036009000C024FEFFD073C043
:10034A0025FEFCD073C000F0003600900036009005
:10035A00003600900036009000C025FEEFD073C032
:10036A0026FEECD073C000F00036009000360090F4
:10037A00003600900036009000C026FEDFD073C021
:10038A0027FEDCD073C000F00036009000360090E3
:10039A00003600900036009000C027FECFD073C010
:1003AA0028FECCD073C000F00036009000360090D2
:1003BA00003600900036009000C028FEBFD073C0FF
:1003CA0029FEBCD07151000AD8B489D67151010AEC
:1003DA00D8B488D67151020AD8B491D67151030A99
:1003EA00D8B490D67151040AD8B499D67151050A75
:1003FA00D8B498D67151060AD8B4A1D67151070A51
:10040A00D8B4A0D67151080AD8B4A9D67151090A2C
:10041A00D8B4A8D671510A0AD8B4B1D671510B0A08
:10042A00D8B4B0D671510C0AD8B4B9D671510D0AE4
:10043A00D8B4B8D671510E0AD8B4C1D671510F0AC0
:10044A00D8B4C0D67151100AD8B4C9D67151110A9C
:10045A00D8B4C8D67151120AD8B4D1D67151130A78
:10046A00D8B4D0D67151140AD8B4D9D67151150A54
:10047A00D8B4D8D67151160AD8B4E1D67151170A30
:10048A00D8B4E0D67151180AD8B4E9D67151190A0C
:10049A00D8B4E8D671511A0AD8B4F1D671511B0AE8
:1004AA00D8B4F0D671511C0AD8B4F9D671511D0AC4
:1004BA00D8B4F8D671511E0AD8B401D771511F0A9F
:1004CA00D8B400D77151200AD8B409D77151210A7A
:1004DA00D8B408D77151220AD8B411D77151230A56
:1004EA00D8B410D77151240AD8B419D77151250A32
:1004FA00D8B418D77151260AD8B421D77151270A0E
:10050A00D8B420D77151280AD8B429D77151290AE9
:10051A00D8B428D771512A0AD8B431D771512B0AC5
:10052A00D8B430D771512C0AD8B439D771512D0AA1
:10053A00D8B438D771512E0AD8B441D7745301E0D0
:10054A0099DD7251010AD8A496D2745301E084DD70
:10055A0071C05DF05D325D9E5D325D9EB0D15DC061
:10056A002AFE85D25DC000F0003600900036009069
:10057A00003600900036009000C02AFE78D25DC096
:10058A002BFE75D25DC000F0003600900036009058
:10059A00003600900036009000C02BFE68D25DC085
:1005AA002CFE65D25DC000F0003600900036009047
:1005BA00003600900036009000C02CFE58D25DC074
:1005CA002DFE55D25DC000F0003600900036009036
:1005DA00003600900036009000C02DFE48D25DC063
:1005EA002EFE45D25DC000F0003600900036009025
:1005FA00003600900036009000C02EFE38D25DC052
:10060A002FFE35D25DC000F0003600900036009013
:10061A00003600900036009000C02FFE28D25DC040
:10062A0030FE25D25DC000F0003600900036009002
:10063A00003600900036009000C030FE18D25DC02F
:10064A0031FE15D25DC000F00036009000360090F1
:10065A00003600900036009000C031FE08D25DC01E
:10066A0032FE05D25DC000F00036009000360090E0
:10067A00003600900036009000C032FEF8D15DC00E
:10068A0033FEF5D15DC000F00036009000360090D0
:10069A00003600900036009000C033FEE8D15DC0FD
:1006AA0034FEE5D15DC000F00036009000360090BF
:1006BA00003600900036009000C034FED8D15DC0EC
:1006CA0035FED5D15DC000F00036009000360090AE
:1006DA00003600900036009000C035FEC8D15DC0DB
:1006EA0036FEC5D15DC000F000360090003600909D
:1006FA00003600900036009000C036FEB8D15DC0CA
:10070A0037FEB5D15DC000F000360090003600908B
:10071A00003600900036009000C037FEA8D15DC0B8
:10072A0038FEA5D15DC000F000360090003600907A
:10073A00003600900036009000C038FE98D15DC0A7
:10074A0039FE95D15DC000F0003600900036009069
:10075A00003600900036009000C039FE88D15DC096
:10076A003AFE85D15DC000F0003600900036009058
:10077A00003600900036009000C03AFE78D15DC085
:10078A003BFE75D15DC000F0003600900036009047
:10079A00003600900036009000C03BFE68D15DC074
:1007AA003CFE65D15DC000F0003600900036009036
:1007BA00003600900036009000C03CFE58D15DC063
:1007CA003DFE55D15DC000F0003600900036009025
:1007DA00003600900036009000C03DFE48D15DC052
:1007EA003EFE45D15DC000F0003600900036009014
:1007FA00003600900036009000C03EFE38D15DC041
:10080A003FFE35D15DC000F0003600900036009002
:10081A00003600900036009000C03FFE28D15DC02F
:10082A0040FE25D15DC000F00036009000360090F1
:10083A00003600900036009000C040FE18D15DC01E
:10084A0041FE15D15DC000F00036009000360090E0
:10085A00003600900036009000C041FE08D15DC00D
:10086A0042FE05D15DC000F00036009000360090CF
:10087A00003600900036009000C042FEF8D05DC0FD
:10088A0043FEF5D05DC000F00036009000360090BF
:10089A00003600900036009000C043FEE8D05DC0EC
:1008AA0044FEE5D05DC000F00036009000360090AE
:1008BA00003600900036009000C044FED8D0735134
:1008CA00000AD8B44CD67351010AD8B44BD6735126
:1008DA00020AD8B454D67351030AD8B453D6735102
:1008EA00040AD8B45CD67351050AD8B45BD67351DE
:1008FA00060AD8B464D67351070AD8B463D67351BA
:10090A00080AD8B46CD67351090AD8B46BD6735195
:10091A000A0AD8B474D673510B0AD8B473D6735171
:10092A000C0AD8B47CD673510D0AD8B47BD673514D
:10093A000E0AD8B484D673510F0AD8B483D6735129
:10094A00100AD8B48CD67351110AD8B48BD6735105
:10095A00120AD8B494D67351130AD8B493D67351E1
:10096A00140AD8B49CD67351150AD8B49BD67351BD
:10097A00160AD8B4A4D67351170AD8B4A3D6735199
:10098A00180AD8B4ACD67351190AD8B4ABD6735175
:10099A001A0AD8B4B4D673511B0AD8B4B3D6735151
:1009AA001C0AD8B4BCD673511D0AD8B4BBD673512D
:1009BA001E0AD8B4C4D673511F0AD8B4C3D6735109
:1009CA00200AD8B4CCD67351210AD8B4CBD67351E5
:1009DA00220AD8B4D4D67351230AD8B4D3D67351C1
:1009EA00240AD8B4DCD67351250AD8B4DBD673519D
:1009FA00260AD8B4E4D67351270AD8B4E3D6735179
:100A0A00280AD8B4ECD67351290AD8B4EBD6735154
:100A1A002A0AD8B4F4D673512B0AD8B4F3D6735130
:100A2A002C0AD8B4FCD673512D0AD8B4FBD673510C
:100A3A002E0AD8B404D773512F0AD8B403D77351E6
:100A4A00300AD8B40CD77351310AD8B40BD77351C2
:100A5A00320AD8B414D77351330AD8B413D773519E
:100A6A00340AD8B41CD77351350AD8B41BD7745377
:100A7A0002E03FEC00F01AD172B102D0929001D09C
:100A8A009280D0D172B102D0929201D09282CAD110
:100A9A0072B102D0929401D09284C4D172B102D0C0
:100AAA00929601D09286BED172B102D0929801D0AC
:100ABA009288B8D172B102D0929A01D0928AB2D1F8
:100ACA0072B102D0929C01D0928CACD172B102D098
:100ADA00939601D09386A6D172B102D0939001D099
:100AEA009380A0D172B102D0939201D093829AD10D
:100AFA0072B102D0929E01D0928E94D172B102D07C
:100B0A00949401D094848ED172B102D0939801D07A
:100B1A00938888D172B102D0939A01D0938A82D1F4
:100B2A0072B102D0939401D093847CD172B102D075
:100B3A00949601D0948676D172B102D0949A01D05B
:100B4A00948A70D172B102D0949801D094886AD1F3
:100B5A0072B102D0949C01D0948C64D172B102D04B
:100B6A00949E01D0948E5ED172B102D0959001D03C
:100B7A00958058D172B102D0959201D0958252D106
:100B8A0072B102D0959401D095844CD172B102D041
:100B9A00959601D0958646D172B102D0959801D02A
:100BAA00958840D172B102D0959A01D0958A3AD1EE
:100BBA0072B102D0959C01D0958C34D172B102D019
:100BCA00959E01D0958E2ED172B102D0969001D009
:100BDA00968028D172B102D0969201D0968222D103
:100BEA0072B102D0969401D096841CD172B102D00F
:100BFA00969E01D0968E16D172B102D0969801D0E7
:100C0A00968810D172B102D0969601D096860AD1F2
:100C1A0072B102D0969C01D0968C04D172B102D0E6
:100C2A00979A01D0978AFED072B102D0979401D0D8
:100C3A009784F8D072B102D0969A01D0968AF2D0EF
:100C4A0072B102D0979E01D0978EECD072B102D0C9
:100C5A00989201D09882E6D072B102D0979C01D0C6
:100C6A00978CE0D072B102D0979601D09786DAD0ED
:100C7A0072B102D0989401D09884D4D072B102D0C3
:100C8A00989601D09886CED072B102D0989801D0A9
:100C9A009888C8D072B102D0979801D09788C2D0EC
:100CAA0072B102D0989001D09880BCD07151000ADC
:100CBA00D8B4E2D67151010AD8B4E4D67151020A05
:100CCA00D8B4E6D67151030AD8B4E8D67151040AE9
:100CDA00D8B4EAD67151050AD8B4ECD67151060ACD
:100CEA00D8B4EED67151070AD8B4F0D67151080AB1
:100CFA00D8B4F2D67151090AD8B4F4D671510A0A95
:100D0A00D8B4F6D671510B0AD8B4F8D671510C0A78
:100D1A00D8B4FAD671510D0AD8B4FCD671510E0A5C
:100D2A00D8B4FED671510F0AD8B400D77151100A3F
:100D3A00D8B402D77151110AD8B404D77151120A22
:100D4A00D8B406D77151130AD8B408D77151140A06
:100D5A00D8B40AD77151150AD8B40CD77151160AEA
:100D6A00D8B40ED77151170AD8B410D77151180ACE
:100D7A00D8B412D77151190AD8B414D771511A0AB2
:100D8A00D8B416D771511B0AD8B418D771511C0A96
:100D9A00D8B41AD771511D0AD8B41CD771511E0A7A
:100DAA00D8B41ED771511F0AD8B420D77151200A5E
:100DBA00D8B422D77151210AD8B424D77151220A42
:100DCA00D8B426D77151230AD8B428D77151240A26
:100DDA00D8B42AD77151250AD8B42CD77151260A0A
:100DEA00D8B42ED77151270AD8B430D77151280AEE
:100DFA00D8B432D77151290AD8B434D771512A0AD2
:100E0A00D8B436D771512B0AD8B438D771512C0AB5
:100E1A00D8B43AD771512D0AD8B43CD771512E0A99
:0A0E2A00D8B43ED7FF0E006E120090
:100E34005AC071F05BC072F05CC073F0010E000127
:080E4400746F65EC00F0120070
:100E4C0054C0E1FF55C0E2FF5AC0E6FF52C000F0AB
:0A0E5C0053C001F059EC00F0120041
:100E6600AECF01F0ABA202D0AB98AB8801C000F0C8
:020E7600120068
:0A0E7800000E9EBA010E006E12007B
:100E8200120E5A6E5B6A010E5C6ED3DF130E5A6E3F
:0A0E9200010E5B6E5C6ACDDF1200FA
:100E9C0061C04AF062C04BF063C04CF064C04DF0CE
:100EAC0065C052F066C053F067C054F068C055F08E
:100EBC0069C046F06AC047F06BC048F06CC049F09E
:100ECC006DC042F06EC043F06FC044F070C045F08E
:020EDC00120002
:100EDE00596A56C0E9FF57C0EAFFEECF58F0585096
:100EEE00000A0DE058C05AF0AADF592A595056246C
:100EFE00E96E000E5720EA6EEECF58F0F0D71200D2
:100F0E00AC8A900EAB6E9EAA03D0AECF00F0FBD78C
:020F1E001200BF
:100F2000B0DF8A0E616F0F0E626F000E636F000EEE
:100F3000646F760E656F000E666F5E0E676F000E53
:100F4000686F9A0E696F0F0E6A6F000E6B6F000E5E
:100F50006C6FFF0E6D6FFF0E6E6F000E6F6F000EE9
:080F6000706F9CDFD4DF12006A
:100F68000900F5CFE6FF0006FBE10106F9E11200F2
:100F7800EA50E25C02E1E950E15C02E2E66AF8D795
:020F8800120055
:040F8A006DDF120005
:0C0F8E004EC056F04FC057F0A3DF120019
:040F9A006EDF1200F4
:100F9E0040EC08F030EC08F0956A8C6A67860F0119
:100FAE00306B8A0EAF6EAC84B4DF090E0B6E1E0E64
:100FBE000C6EE40E0D6E0D2EFED70C2EFCD70B2EE6
:100FCE00FAD70000150E4E6E000E4F6ED9DFDEDF23
:100FDE00005227E0D3DF00C041F016D08C6A21D03A
:100FEE00FF0E8C6E1ED08C50010F006E00C08CFF59
:100FFE0018D08C04006E00C08CFF13D0290E4E6EDC
:10100E00000E4F6EBDDF0DD04150780AE7E0415023
:10101E006F0AE6E04150690AE6E04150640AE9E0F1
:06102E00EDD7D5D7FFD776
:1010600010EE15F02C0E006E010E016E340EF66EB1
:0E107000100EF76E000EF86EB4EC07F01200D2
:0E10800010EE15F000EE56F0BCEC07F012007A
:101034004578616D706C65203220537461727465FB
:04104400640D0A002D
:10104800556E7265636F676E697A656420636F6D4C
:081058006D616E642E0D0A00AB
:020000040000FA
:10FFF000A0F703FC22F0FFF7F3FEFFFC05F0F8F298
:00000001FF
